:020000040000FA
:100000000C9475000C949D000C949D000C949D0024
:100010000C949D000C949D000C949D000C949D00EC
:100020000C949D000C949D000C949D000C94CC09A4
:100030000C949D000C949D000C949D000C949D00CC
:100040000C942A090C949D000C949A090C94740940
:100050000C949D000C949D000C949D000C949D00AC
:100060000C949D000C949D000000000024002700CB
:100070002A0000000000250028002B0004040404CE
:100080000404040402020202020203030303030342
:10009000010204081020408001020408102001021F
:1000A00004081020000000080002010000030407FB
:1000B0000000000000000000CDCCCC3D0AD7233C5E
:1000C00017B7D13877CC2B329595E6241FB14F0A5C
:1000D000000020410000C84200401C4620BCBE4C2D
:1000E000CA1B0E5AAEC59D74880A11241FBECFEFDD
:1000F000D8E0DEBFCDBF11E0A0E0B1E0E8E2F3E27E
:1001000002C005900D92A43BB107D9F722E0A4EB01
:10011000B1E001C01D92AA38B207E1F710E0C5E7CF
:10012000D0E004C02197FE010E946A0FC437D107B6
:10013000C9F70E94FF0A0C9492110C94000090E001
:10014000FC01EC55FF4F2491FC01E057FF4F349127
:10015000FC01E458FF4FE491EE23C9F0222339F06B
:10016000233001F1A8F4213019F1223029F1F0E017
:10017000EE0FFF1FEE58FF4FA591B4918FB7F89483
:10018000EC91611126C030953E233C938FBF0895BA
:100190002730A9F02830C9F0243049F78091800039
:1001A0008F7D03C0809180008F7780938000DFCFA8
:1001B00084B58F7784BDDBCF84B58F7DFBCF8091F5
:1001C000B0008F778093B000D2CF8091B0008F7D48
:1001D000F9CF3E2BDACFCF93DF9390E0FC01E057CD
:1001E000FF4F249184589F4FFC0184918823D1F0C4
:1001F00090E0880F991FFC01E859FF4FA591B49139
:10020000FC01EE58FF4FC591D49161110EC09FB70C
:10021000F8948C91E22FE0958E238C932881E22331
:10022000E8839FBFDF91CF9108958FB7F894EC9149
:10023000E22BEC938FBFF6CF8E50806480937C00CE
:1002400080917A00806480937A0080917A0086FDA4
:10025000FCCF809178009091790008953FB7F89491
:100260008091BA019091BB01A091BC01B091BD01F8
:1002700026B5A89B05C02F3F19F00196A11DB11D01
:100280003FBFBA2FA92F982F8827BC01CD01620F3D
:10029000711D811D911D42E0660F771F881F991FF8
:1002A0004A95D1F708958F929F92AF92BF92CF92C5
:1002B000DF92EF92FF924B015C010E942E016B01D5
:1002C0007C010E942E016C197D098E099F09683EF0
:1002D000734081059105A8F321E0821A9108A108D5
:1002E000B10888EEC80E83E0D81EE11CF11C811411
:1002F0009104A104B10429F7FF90EF90DF90CF9013
:10030000BF90AF909F908F900895AF92BF92CF9281
:10031000DF92EF92FF920F931F93CF93DF936C01C5
:100320007B018B01040F151FEB015E01AE18BF08A6
:10033000C017D10759F06991D601ED91FC91019058
:10034000F081E02DC6010995892B79F7C501DF9170
:10035000CF911F910F91FF90EF90DF90CF90BF90C2
:10036000AF900895FC01538D448D252F30E0842FEC
:1003700090E0821B930B541710F0CF9608950197CD
:100380000895FC01918D828D981761F0A28DAE0FBA
:10039000BF2FB11D5D968C91928D9F5F9F73928F41
:1003A00090E008958FEF9FEF0895FC01918D828D6D
:1003B000981731F0828DE80FF11D858D90E008953A
:1003C0008FEF9FEF0895FC01918D228D892F90E092
:1003D000805C9F4F821B91098F73992708958EEB44
:1003E00091E00E94E30121E0892B09F420E0822FB3
:1003F000089580E090E0892B29F00E94EF0181119F
:100400000C9400000895FC01A48DA80FB92FB11D14
:10041000A35ABF4F2C91848D90E001968F7399273A
:10042000848FA689B7892C93A089B1898C91837018
:1004300080648C93938D848D981306C00288F38911
:10044000E02D80818F7D80830895EF92FF920F933E
:100450001F93CF93DF93EC0181E0888F9B8D8C8D70
:1004600098131AC0E889F989808185FF15C09FB764
:10047000F894EE89FF896083E889F9898081837027
:10048000806480839FBF81E090E0DF91CF911F91D6
:100490000F91FF90EF900895F62E0B8D10E00F5FF7
:1004A0001F4F0F731127E02E8C8D8E110CC00FB6CD
:1004B00007FCFACFE889F989808185FFF5CFCE0165
:1004C0000E940302F1CFEB8DEC0FFD2FF11DE35ADB
:1004D000FF4FF0829FB7F8940B8FEA89FB898081E8
:1004E0008062CFCFCF93DF93EC01888D8823B9F062
:1004F000AA89BB89E889F9898C9185FD03C080812F
:1005000086FD0DC00FB607FCF7CF8C9185FFF2CFAB
:10051000808185FFEDCFCE010E940302E9CFDF91FC
:10052000CF910895CF92DF92EF92FF92CF93DF9316
:10053000EC01603282E07807CCF5653B710514F080
:1005400064EB70E0898128E830E0281B310987FDE1
:100550003395220F331F220F331F6901330FEE082B
:10056000FF088A8128E532E0281B310987FD339591
:10057000220F331F220F331F032E000C440B550B89
:100580002C193D094E095F09DB0177FF02C0B0E07D
:10059000A0E00E944C0D24EB30E040E050E00E94CF
:1005A000220DC20ED31EE41EF51EB601E881EC300A
:1005B00070F5298188E890E0821B910927FD9395C9
:1005C000880F991F880F991F681779077CF02A8177
:1005D00088E592E0821B910927FD9395880F991F6A
:1005E000880F991F681779070CF4CB010297880FC1
:1005F000991F4FB7F8942E2F30E0F901EE0FFF1F2F
:10060000E20FF31FE55AFD4F928381834FBFDF91C5
:10061000CF91FF90EF90DF90CF9008951F93CF93ED
:10062000DF93EC01162F88818C3008F04EC061E01A
:10063000812F0E94EB008881282F30E0F901EE0F16
:10064000FF1FE20FF31FE55AFD4F1F736081607CAF
:10065000612B608319821A822CE0622F0E944A0F5C
:10066000829FB001112430E020E0AB01420F531F04
:10067000FA01EE0FFF1FE40FF51FE55AFD4F9081C1
:1006800096FD16C02F5F3F4F2C30310571F7811159
:100690000FC01092800082E080938100109285004C
:1006A00010928400B19A80916F00826080936F00F5
:1006B000E8818E2F90E0FC01EE0FFF1FE80FF91F7D
:1006C000E55AFD4F8081806480838881DF91CF91DE
:1006D0001F9108956F3FA9F0E62FE295EF7044E077
:1006E000E49F90011124DC01ED91FC91E20FF31FD6
:1006F0006F7082819381B6E06B9F800D911D1124F4
:10070000089590E080E00895CF93DF93EC01888115
:100710009981DC01ED91FC910190F081E02D09952A
:100720002A813B81820F931F9B838A83DF91CF9124
:100730000895CF93DF93EC0188819981DC01ED91DD
:10074000FC910280F381E02D09952A813B81820F83
:10075000931F9B838A83DF91CF9108958F929F92FD
:10076000AF92BF92CF92DF92EF92FF920F931F93BF
:10077000CF93DF93CDB7DEB766970FB6F894DEBFA1
:100780000FBECDBF6C018E01095E1F4F78018AE05C
:10079000882E912CA12CB12CCB01BA01A50194017A
:1007A0000E94540D942F852F605DF80162938F0194
:1007B000A901692F782F411551056105710561F770
:1007C000A7014E1B5F0BBF01C6010E9499036696ED
:1007D0000FB6F894DEBF0FBECDBFDF91CF911F9152
:1007E0000F91FF90EF90DF90CF90BF90AF909F90D0
:1007F0008F900895DC0152969C915297915084E01D
:10080000989F900111245096ED91FC91E20FF31FF7
:10081000228133812115310579F04181808148178A
:1008200058F481E0840F818386E0489F200D311DBC
:1008300011242115310521F460E070E08FEF089557
:10084000B901892F8295807F840F0895AF92BF925E
:10085000CF92DF92EF92FF920F931F93CF93DF938C
:10086000EC018B018C8180FF2CC0A881B981FB0138
:100870008381948130E020E0009719F1A817B9072F
:1008800009F041C0F8014081518112969C91129764
:10089000915012969C931297911113C08D919C9137
:1008A00011972115310561F1F90191838083FA01D6
:1008B00080819181FC0122813381BD01CA01F9014E
:1008C00009958C81807631F1209721F1F8805801CB
:1008D000F5E1AF0EB11C8FEFF816D1F06F2DC50109
:1008E0000E946A036C01FC01E580B8010E942604A5
:1008F000F801818DF6018083F801F18EFE2CEBCF9B
:1009000094838383D4CF9C01FC0180819181B4CFF7
:10091000F882F9821C82DF91CF911F910F91FF9095
:10092000EF90DF90CF90BF90AF900895FB010190C2
:100930000020E9F73197AF01461B570B0C94990340
:10094000CF92DF92EF92FF920F931F93CF93DF939B
:100950008C016B017A0162E20E948403E601EC0CD7
:10096000FD1CEC16FD0699F06991E8E2F1E0D480F7
:10097000DD20C9F0329683816813F9CF6CE5C80198
:100980000E9484036D2DC8010E948403EACF62E2B5
:10099000C801DF91CF911F910F91FF90EF90DF90F1
:1009A000CF900C9484036111EECF6BE371E0C8012A
:1009B0000E949604D6CF2F923F924F925F926F92F1
:1009C0007F928F929F92AF92BF92CF92DF92EF92DF
:1009D000FF920F931F93CF93DF93CDB7DEB76B9743
:1009E0000FB6F894DEBF0FBECDBF7C018B01DC01DA
:1009F00014968C9114978A3009F4A0C2F0F48430D4
:100A000009F479C268F4833009F490C262E471E0B9
:100A1000C8010E949604D80112968D919C9129C21A
:100A2000853009F47BC2863089F78C9167E471E0E8
:100A3000811155C06CE471E052C08E3009F440C0A1
:100A4000C8F48C3019F7CD90DD90ED90FC90B70193
:100A5000A601F7FE0BC06DE2C8010E948403442783
:100A60005527BA014C195D096E097F09C8010E941A
:100A7000AE03FCC1803209F415C2803439F66BE54F
:100A8000C8010E948403D701FC90BFEFFB1609F454
:100A9000E9C1F801848195816F2D45960E946A0312
:100AA0007C01B8010E94DB04D7011596FC90BFEFD2
:100AB000FB1609F4D7C16CE2C8010E948403E5CF9C
:100AC000F70180809180A280B380A5019401C501C7
:100AD000B4010E94F20D882331F062E471E0C80194
:100AE0000E949604C3C120E030E0A901C501B40111
:100AF0000E94F20D882371F0A5019401C501B40193
:100B00000E94860D9B01AC01C501B4010E94F20D4B
:100B1000882319F320E030E0A901C501B4010E9447
:100B2000F20D87FF08C06DE2C8010E948403B7FA86
:100B3000B094B7F8B09420E836E948E15BE4C50129
:100B4000B4010E94D80E87FD83C074E1C72ED12C5A
:100B5000E0E2EE2EF12C312C212CF601E053FF4F78
:100B60006591759185919491A50194010E94F20D72
:100B700018167CF0F601E854FF4F25913591459108
:100B80005491C501B4010E94DD0E4B015C012E0C95
:100B90003F1CF594E794F4E0CF1AD1082CEFC2166D
:100BA0002FEFD206D1F63FEF3F8B20E030E0A901D6
:100BB000C501B4010E94D80E18160CF051C02CEAE1
:100BC00035EC47E257E3C501B4010E94F20D181657
:100BD0000CF446C0AF89B4E0AB02C0011124D12CA3
:100BE000C12CFC01E854FF4F2F019C0120533F4FC3
:100BF00039013F893F3F09F433C0F201EC0DFD1D7F
:100C0000659175918591949120E030E040E251E446
:100C10000E94DD0EA50194010E94D80E18167CF4E6
:100C2000F301EC0DFD1D2591359145915491C501C0
:100C3000B4010E94DD0E4B015C012E183F08F594B3
:100C4000E7948F8981508F8B94E0C91AD108D1CF56
:100C500050E2E52EF12C85E08F8B312C212CA5CF95
:100C6000C501B4010E94F70D6B017C012B013C0111
:100C700080E492E4AFE0B0E0888F998FAA8FBB8FB9
:100C800096E09F8BAAE04A16510461047104E0F0DB
:100C9000688D798D8A8D9B8D2AE030E040E050E0B0
:100CA0000E94540D288F398F4A8F5B8FBF89B150B6
:100CB000BF8BC301B2012AE030E040E050E00E9467
:100CC000540D29013A01DECFC701B6010E94260E5C
:100CD0009B01AC01C501B4010E94850D4B015C0173
:100CE000688D798D8A8D9B8D0E94260E9B01AC01AB
:100CF000C501B4010E94DD0E2B013C010E94F70DDD
:100D00004B015C010E94260E9B01AC01C301B201A4
:100D10000E94850D9B01AC010E94860D0E94F70D7B
:100D2000860E971EA81EB91E888D998DAA8DBB8D23
:100D300088169906AA06BB06C0F09FEFC91AD90A01
:100D4000E90AF90A2114310439F1AAE0CA16D104DA
:100D5000E104F10408F1BFEF2B1A3B0A812C912C1E
:100D60005401C12CD12C7601C3942AE0422E512C7F
:100D7000612C712CC501B401A30192010E94540D94
:100D8000672B682B692B61F4EF891E164CF449011F
:100D90005A01E150EF8BEECF812C912C5401E5CF1D
:100DA000B701A601C8010E94AE03FF89FF2391F19C
:100DB0006E0121E1C20ED11CF88F76019AE0492E16
:100DC000512C612C712C388D3150388F3F3F69F098
:100DD000C501B401A30192010E94540D605DD601CA
:100DE0006E936D0149015A01EECFBF898B2F90E0C0
:100DF000BC0160957095F701E81BF90B31978EE205
:100E0000808344275527461B570B6E0D7F1DC80155
:100E10000E9499032114310449F165E6C8010E943A
:100E20008403710137FE07C06DE2C8010E9484038C
:100E3000F194E194F108FE0177969F018AE0C82EB3
:100E4000D12CC701B6010E94560F805D82937B01B1
:100E5000672BB9F7A9014E1B5F0BBF01C8010E94A8
:100E6000990304C06DE5C8010E948403F8018281E2
:100E700093816B960FB6F894DEBF0FBECDBFDF91A6
:100E8000CF911F910F91FF90EF90DF90CF90BF9087
:100E9000AF909F908F907F906F905F904F903F901A
:100EA0002F9008956BE7C8010E948403D701FC903E
:100EB000EE24E394BB24B394BFEFFB16D1F0F8010A
:100EC000848195816F2D45960E946A036C01B8015B
:100ED0000E94DB04D6011596FC90BFEFFB1639F09B
:100EE0006AE3E11001C06CE2C8010E948403EB24B4
:100EF000E3CF6DE7B8CF6D917C9150E040E0611594
:100F0000710541F0FB0101900020E9F73197AF0135
:100F1000461B570BC8010E94A004A8CFED91FC917D
:100F2000438150E0BF016C5F7F4FF4CFED91FC91A6
:100F3000438150E0BF016C5F7F4F90CF4D915D9139
:100F40006D917C9193CDBF92CF92DF92EF92FF9201
:100F50000F931F93CF93DF93EC01198D1F3F81F007
:100F6000612F45960E946A03FC018081898F30972A
:100F700009F477C014828FEF8583BF01812F76C07B
:100F80006C0135E0C30ED11CE880F9808F8988237D
:100F900041F0C6010E94FA03E62FF72F182F309771
:100FA00049F71F89988D191324C0103109F459C0CD
:100FB000110F6D897E89D701ED91FC91B4E01B9FE3
:100FC000A0011124C616D70609F044C00190F08193
:100FD000E02DBA01C7010995009709F442C020E14C
:100FE000F601DC0101900D922A95E1F79E8B8D8B25
:100FF000188F0D891E898F8921E0280F2F8BE4E03F
:101000008E9FC0011124080F191F90E1B92E2031C5
:1010100011F48FE0B82EF6E0BF9EB0011124D70185
:10102000ED91FC910190F081E02DC7010995F80147
:1010300093838283892B09F4B12CD801BC92119639
:101040001C92012B71F0C6010E94FA03E62FF72FC4
:10105000182F8DCF0480F581E02DC70109950097E9
:1010600029F681E08A8360E070E08FEFDF91CF9115
:101070001F910F91FF90EF90DF90CF90BF90089558
:101080006F927F928F929F92AF92BF92CF92DF9298
:10109000EF92FF920F931F93CF93DF93FC01C081D8
:1010A000D181C63EFFEFDF0781F480E0DF91CF9171
:1010B0001F910F91FF90EF90DF90CF90BF90AF9076
:1010C0009F908F907F906F900895FC010281138113
:1010D0000115110551F38E8D81112CC080E28E8F88
:1010E0008FEF8A8F8B8F6B017E01F5E1EF0EF11C84
:1010F0006A8DC7010E946A03DC01BB24BA94892B64
:1011000019F01596BC901597AA24A394882483946B
:10111000109709F470C0AA20D1F114968C911497FD
:10112000843059F0853009F43FC030E020E070E0B1
:1011300060E014C08032B9F2B8CF6D917C91119704
:1011400030E020E06115710549F0FB0101900020BD
:10115000E9F79F0121503109261B370BF801019057
:101160000020E9F7CF010197801B910B82179307AD
:1011700071F4C801260F371F62177307D9F1FB01FD
:101180005191BF01FC014191CF015417A9F3A8244B
:101190006B2DC7010E946A03DC01892B09F4B8CFCB
:1011A0001596BC901597B4CFED91FC9111972381C2
:1011B00030E0BF016C5F7F4FD1CF692DC7010E9426
:1011C0006A035C01892BC9F0F60100811181BE011F
:1011D000C5010E9426048CE0F5018483012E000CD9
:1011E000220B330B008311832283338381E05ECF94
:1011F0006A8E24C09B2CAB2B01F7CE010E94A30763
:10120000682E4B01672B09F450CFCE010E94A30733
:10121000782E962FA92EB72EA114B10409F445CF2C
:1012200084E0F40184831183008375826B8D6F3FAA
:10123000F9F2C7010E946A03FC0165827B8EC4CF6C
:10124000CB01BA010C949510CB010C940C10CB017E
:101250000C94700F1F920F920FB60F9211242F93C0
:101260003F938F939F93AF93BF938091B6019091DB
:10127000B701A091B801B091B9013091B50123E057
:10128000230F2D3758F50196A11DB11D2093B501EF
:101290008093B6019093B701A093B801B093B901C0
:1012A0008091BA019091BB01A091BC01B091BD01A8
:1012B0000196A11DB11D8093BA019093BB01A0932B
:1012C000BC01B093BD01BF91AF919F918F913F91B0
:1012D0002F910F900FBE0F901F90189526E8230FA7
:1012E0000296A11DB11DD2CF1F920F920FB60F9281
:1012F00011242F933F934F935F936F937F938F931B
:101300009F93AF93BF93EF93FF938EEB91E00E9477
:101310000302FF91EF91BF91AF919F918F917F91C8
:101320006F915F914F913F912F910F900FBE0F9052
:101330001F9018951F920F920FB60F9211242F93A2
:101340008F939F93EF93FF93E091CE01F091CF01A4
:101350008081E091D401F091D50182FD1BC0908184
:101360008091D7018F5F8F732091D801821741F050
:10137000E091D701F0E0E254FE4F958F8093D701C2
:10138000FF91EF919F918F912F910F900FBE0F9032
:101390001F9018958081F4CF1F920F920FB60F9275
:1013A00011242F933F934F935F936F937F938F936A
:1013B0009F93AF93BF93CF93DF93EF93FF9380916E
:1013C000B401C0917F02D0E087FF24C01092850055
:1013D000109284008091B4018F5F8093B40180915A
:1013E000B401082E000C990B8C179D0724F48091F2
:1013F000B4018C30C4F180918400909185000496F2
:1014000080349C4908F47AC08091840090918500D2
:10141000049676C08091B401082E000C990B8C17AD
:101420009D07C4F6E091B4018E2FEE0F990BFC01DD
:10143000EE0FFF1FE80FF91FE55AFD4F808186FF71
:10144000C9CFE091B4018E2FEE0F990BFC01EE0F86
:10145000FF1FE80FF91FE55AFD4F808160E08F7391
:101460000E949F00B7CF2091840030918500E091C9
:10147000B4018E2FEE0F990BFC01EE0FFF1FE80F4A
:10148000F91FE55AFD4F81819281820F931F90933E
:10149000890080938800E091B4018E2FEE0F990BA4
:1014A000FC01EE0FFF1FE80FF91FE55AFD4F808189
:1014B00086FF11C0E091B4018E2FEE0F990BFC0155
:1014C000EE0FFF1FE80FF91FE55AFD4F808161E025
:1014D0008F730E949F00FF91EF91DF91CF91BF9199
:1014E000AF919F918F917F916F915F914F913F91BC
:1014F0002F910F900FBE0F901F90189580E49CE9DC
:1015000090938900809388008FEF8093B401E3CF9C
:101510001092C1011092C00188EE93E0A0E0B0E00B
:101520008093C2019093C301A093C401B093C501FD
:101530008AE191E09093BF018093BE0185EC90E039
:101540009093CB018093CA0184EC90E09093CD01FD
:101550008093CC0180EC90E09093CF018093CE01FA
:1015600081EC90E09093D1018093D00182EC90E0E7
:101570009093D3018093D20186EC90E09093D501B3
:101580008093D4011092D7011092D8011092D90102
:101590001092DA0180917F028C3048F591E0980F2B
:1015A00090937F028093830290E0FC01EE0FFF1F77
:1015B000E80FF91FE55AFD4F88EB9BE0928381838A
:1015C00080917F028C30B8F491E0980F90937F0265
:1015D0008093800290E0FC01EE0FFF1FE80FF91FDF
:1015E000E55AFD4F88EB9BE09283818308958FEF4E
:1015F00080938302E5CF8FEF809380020895CF938D
:10160000DF93CDB7DEB7AE970FB6F894DEBF0FBE4F
:10161000CDBF789484B5826084BD84B5816084BD7B
:1016200085B5826085BD85B5816085BD80916E0080
:10163000816080936E0010928100809181008260B1
:1016400080938100809181008160809381008091EE
:1016500080008160809380008091B10084608093DD
:10166000B1008091B00081608093B00080917A00D9
:10167000846080937A0080917A00826080937A00FF
:1016800080917A00816080937A0080917A008068EE
:1016900080937A001092C100E091CE01F091CF01C9
:1016A00082E08083E091CA01F091CB011082E09149
:1016B000CC01F091CD018FEC80831092D601E091A6
:1016C000D201F091D30186E08083E091D001F091C6
:1016D000D101808180618083E091D001F091D101BE
:1016E000808188608083E091D001F091D101808178
:1016F00080688083E091D001F091D10180818F7D5D
:10170000808361E08DE00E94EB0060E08EE00E944B
:10171000EB0060E08FE00E94EB0060E080E10E945F
:10172000EB0060E081E10E94EB0066E070E083E89E
:1017300092E00E940E0365E070E080E892E00E9473
:101740000E036DE270E083E892E00E9492026DE287
:1017500070E080E892E00E94920260ED77E080E025
:1017600090E00E9453015E0186E0A80EB11CDE01EC
:1017700011966D01AEEB2A2EA1E03A2EB4EB8B2E22
:10178000912C55245A948EE00E941C019EA78DA78F
:101790008FE00E941C019CA78BA780E10E941C0186
:1017A0009AA789A781E10E941C0198A78FA3EDA4A5
:1017B000FEA40BA51CA5A701400F511F57FF02C097
:1017C0004F5F5F4F5595479569A57AA59C01260FF8
:1017D000371F37FF02C02F5F3F4F35952795080F02
:1017E000191F17FF02C00F5F1F4F15950795E60ED3
:1017F000F71EF7FE03C0BFEFEB1AFB0AF594E79460
:1018000038016E187F08CA01821B930BC296853679
:101810009105E0F0809104019091050124173507AE
:101820009CF50196853B91052CF4909305018093DE
:10183000040104C0909205018092040160910401AA
:101840007091050183E892E00E94920268EE73E0D5
:1018500080E090E00E945301E2E36E0E711CF5E619
:101860006F16710428F18091020190910301E01636
:10187000F1060CF0A2C00196853B91056CF49093A3
:101880000301809302010CC0019797FFCECF109205
:10189000050110920401D2CF9092030180920201BF
:1018A000609102017091030180E892E00E9492022F
:1018B00080E091E09A8389831B821D821C82BF8A0B
:1018C000AE8A188E84E0898F5A8E1F8E58A2DAA2B3
:1018D000C9A2A2E5B1E0BCA3ABA3BE01635D7F4F8B
:1018E000CE0181960E944008DAA2C9A28EE591E05D
:1018F0009CA38BA3BE01655D7F4FCE0181960E94A4
:101900004008DAA2C9A28AE691E09CA38BA3BE019B
:10191000675D7F4FCE0181960E944008DAA2C9A27E
:1019200086E791E09CA38BA3BE01695D7F4FCE014A
:1019300081960E944008DAA2C9A282E891E09CA3A5
:101940008BA362E071E0CE0181960E944008DAA28A
:10195000C9A28AE991E09CA38BA364E071E0CE0167
:1019600081960E9440083AA229A21CA21BA2DEA2D4
:10197000CDA2BE016F5D7F4FCE014B960E94DB046E
:1019800042E050E060EB71E08EEB91E00E94850157
:1019900009811A816C817D8161157105B1F0FB01AE
:1019A000808191819D838C83D801ED91FC9102808F
:1019B000F381E02DC8010995EDCF019797FF5FCF27
:1019C00010920301109202016BCFE980FA80712C12
:1019D0006E897F89888D7816D8F4B4E07B9E80016B
:1019E0001124060F171FF8016281738161157105BB
:1019F00041F0D701ED91FC910280F381E02DC70108
:101A00000995F80113821282108211827394E0CF3B
:101A1000188E5A8E6A157B0541F0D701ED91FC9125
:101A20000280F381E02DC701099580E090E0892BC9
:101A300009F4A9CE0E94EF01882309F4A2CE0E94E6
:101A400000009FCE052E97FB1EF400940E94390DD6
:101A500057FD07D00E94540D07FC03D04EF40C94A0
:101A6000390D50954095309521953F4F4F4F5F4F21
:101A7000089590958095709561957F4F8F4F9F4FFA
:101A800008950E94760DA59F900DB49F900DA49F80
:101A9000800D911D11240895B7FF0C94410D0E94F3
:101AA000410D821B930B0895A1E21A2EAA1BBB1BAA
:101AB000FD010DC0AA1FBB1FEE1FFF1FA217B3071A
:101AC000E407F50720F0A21BB30BE40BF50B661F30
:101AD000771F881F991F1A9469F7609570958095F4
:101AE00090959B01AC01BD01CF010895A29FB0016B
:101AF000B39FC001A39F700D811D1124911DB29F42
:101B0000700D811D1124911D08955058BB27AA27DF
:101B10000E949D0D0C949E0E0E94900E38F00E9423
:101B2000970E20F039F49F3F19F426F40C948D0E93
:101B30000EF4E095E7FB0C94870EE92F0E94AF0EA0
:101B400058F3BA17620773078407950720F079F4F2
:101B5000A6F50C94D10E0EF4E0950B2EBA2FA02D05
:101B60000B01B90190010C01CA01A0011124FF274A
:101B7000591B99F0593F50F4503E68F11A16F04045
:101B8000A22F232F342F4427585FF3CF4695379544
:101B90002795A795F0405395C9F77EF41F16BA0B09
:101BA000620B730B840BBAF09150A1F0FF0FBB1FB7
:101BB000661F771F881FC2F70EC0BA0F621F731F00
:101BC000841F48F4879577956795B795F7959E3F5D
:101BD00008F0B0CF9395880F08F09927EE0F9795EE
:101BE000879508950E94630E08F481E008950E948D
:101BF000B70E88F09F5798F0B92F9927B751B0F0DA
:101C0000E1F0660F771F881F991F1AF0BA95C9F780
:101C100014C0B13091F00E94D10EB1E008950C943F
:101C2000D10E672F782F8827B85F39F0B93FCCF3F2
:101C3000869577956795B395D9F73EF490958095FD
:101C4000709561957F4F8F4F9F4F0895E89409C01D
:101C500097FB3EF490958095709561957F4F8F4FDF
:101C60009F4F9923A9F0F92F96E9BB279395F695F5
:101C7000879577956795B795F111F8CFFAF4BB0F73
:101C800011F460FF1BC06F5F7F4F8F4F9F4F16C0D7
:101C9000882311F096E911C0772321F09EE8872F61
:101CA000762F05C0662371F096E8862F70E060E01D
:101CB0002AF09A95660F771F881FDAF7880F969596
:101CC000879597F90895990F0008550FAA0BE0E83A
:101CD000FEEF16161706E807F907C0F012161306EE
:101CE000E407F50798F0621B730B840B950B39F42E
:101CF0000A2661F0232B242B252B21F408950A2694
:101D000009F4A140A6958FEF811D811D089597F9D3
:101D10009F6780E870E060E008959FEF80EC089591
:101D200000240A94161617061806090608950024BA
:101D30000A9412161306140605060895092E039434
:101D4000000C11F4882352F0BB0F40F4BF2B11F4A8
:101D500060FF04C06F5F7F4F8F4F9F4F089557FD07
:101D60009058440F551F59F05F3F71F04795880F09
:101D700097FB991F61F09F3F79F0879508951216A0
:101D800013061406551FF2CF4695F1DF08C016164C
:101D900017061806991FF1CF8695710561050894FD
:101DA0000895E894BB2766277727CB0197F9089514
:101DB0000E94630E08F48FEF08950E94F00E0C94B9
:101DC0009E0E0E94900E38F00E94970E20F09523F0
:101DD00011F00C94870E0C948D0E11240C94D20EDD
:101DE0000E94AF0E70F3959FC1F3950F50E0551F01
:101DF000629FF001729FBB27F00DB11D639FAA2760
:101E0000F00DB11DAA1F649F6627B00DA11D661FAE
:101E1000829F2227B00DA11D621F739FB00DA11DCF
:101E2000621F839FA00D611D221F749F3327A00D89
:101E3000611D231F849F600D211D822F762F6A2F25
:101E400011249F5750409AF0F1F088234AF0EE0F8A
:101E5000FF1FBB1F661F771F881F91505040A9F7B7
:101E60009E3F510580F00C94870E0C94D20E5F3F7C
:101E7000E4F3983ED4F3869577956795B795F795F3
:101E8000E7959F5FC1F7FE2B880F911D969587956B
:101E900097F90895991B79E004C0991F961708F0E7
:101EA000961B881F7A95C9F780950895AA1BBB1BBE
:101EB00051E107C0AA1FBB1FA617B70710F0A61B4A
:101EC000B70B881F991F5A95A9F780959095BC016B
:101ED000CD010895EE0FFF1F0590F491E02D0994B8
:101EE0000F931F93CF93DF938230910510F482E01C
:101EF00090E0E0918802F091890230E020E0B0E0CB
:101F0000A0E0309799F42115310509F44AC0281B47
:101F1000390B24303105D8F58A819B816115710513
:101F200089F1FB0193838283FE0111C040815181BD
:101F30000281138148175907E0F04817590799F4AF
:101F4000109761F012960C93129713961C93329689
:101F5000CF01DF91CF911F910F91089500938802D7
:101F600010938902F4CF2115310551F04217530720
:101F700038F0A901DB019A01BD01DF01F801C1CFF1
:101F8000EF01F9CF9093890280938802CDCFFE01B3
:101F9000E20FF31F819391932250310939832883F3
:101FA000D7CF2091860230918702232B41F42091D4
:101FB0000801309109013093870220938602209115
:101FC0000601309107012115310541F42DB73EB7C7
:101FD00040910A0150910B01241B350BE0918602C0
:101FE000F0918702E217F307A0F42E1B3F0B28178E
:101FF000390778F0AC014E5F5F4F2417350748F082
:102000004E0F5F1F509387024093860281939193F6
:102010009FCFF0E0E0E09CCFCF93DF930097E9F013
:10202000FC01329713821282A0918802B09189023A
:10203000ED0130E020E01097A1F420813181820F82
:10204000931F20918602309187022817390709F0E3
:1020500061C0F0938702E0938602DF91CF910895EB
:10206000EA01CE17DF07E8F54A815B819E01411541
:102070005105B1F7E901FB83EA8349915991C40FF6
:10208000D51FEC17FD0761F4808191810296840FC2
:10209000951FE90199838883828193819B838A8339
:1020A000F0E0E0E012968D919C9113970097B9F5BE
:1020B0002D913C911197CD010296820F931F209193
:1020C0008602309187022817390739F6309751F583
:1020D0001092890210928802B0938702A093860220
:1020E000BCCFD383C28340815181840F951FC81711
:1020F000D90761F44E5F5F4F88819981480F591F5E
:10210000518340838A819B8193838283211531058A
:1021100009F0B0CFF0938902E09388029ECFFD01D1
:10212000DC01C0CF13821282D7CFB0E0A0E0EBE990
:10213000F0E10C945D118C01009751F4CB010E94E9
:10214000700F8C01C801CDB7DEB7E0E10C947911B6
:10215000FC01E60FF71F9C0122503109E217F3073B
:1021600008F49DC0D901CD91DC911197C617D7070E
:1021700098F0C530D10530F3CE0104978617970744
:1021800008F3C61BD70B2297C193D1936D937C9311
:10219000CF010E940C10D6CF5B01AC1ABD0A4C01D6
:1021A0008C0E9D1EA0918802B0918902512C412C69
:1021B000F12CE12C109731F58091860290918702E5
:1021C0008815990509F05CC04616570608F058C0F6
:1021D0008091060190910701009741F48DB79EB759
:1021E00040910A0150910B01841B950BE817F907E8
:1021F00008F055C0F0938702E0938602F9017183DD
:102200006083A0CF8D919C91119712966C9012973C
:1022100013967C901397A815B90559F56C0142E007
:10222000C40ED11CCA14DB0420F1AC014A195B09AD
:10223000DA011296159780F062827382518340838F
:10224000D9016D937C93E114F10471F0D7011396D9
:10225000FC93EE93129776CF22968C0F9D1FF90177
:1022600091838083F301EFCFF0938902E09388029A
:1022700069CF4816590608F42C017D01D3019ACF85
:10228000CB010E94700F7C01009749F0AE01B801AC
:102290000E945211C8010E940C10870153CF10E018
:1022A00000E050CFFB01DC0102C001900D924150D3
:1022B0005040D8F708952F923F924F925F926F92BD
:1022C0007F928F929F92AF92BF92CF92DF92EF92C6
:1022D000FF920F931F93CF93DF93CDB7DEB7CA1B47
:1022E000DB0B0FB6F894DEBF0FBECDBF09942A8872
:1022F000398848885F846E847D848C849B84AA841A
:10230000B984C884DF80EE80FD800C811B81AA81A6
:10231000B981CE0FD11D0FB6F894DEBF0FBECDBF71
:10232000ED010895F894FFCF10012D002D0000005D
:102330008A0280000000000027092409200900000B
:10234000000025028501B2017202E301C101D5013D
:102350002F2F272722225C5C6208660C6E0A720D02
:102360007409005C7530303030006E756C6C007430
:102370007275650066616C7365004C44525F53551D
:10238000505F455351004C44525F5355505F444990
:1023900052004C44525F494E465F455351004C44F5
:1023A000525F494E465F44495200414E47554C4F9B
:1023B0005F534552564F5F484F52495A4F4E544112
:1023C0004C00414E47554C4F5F534552564F5F5658
:0C23D0004552544943414C000D0A0000E6
:107E0000112484B714BE81FFF0D085E080938100F7
:107E100082E08093C00088E18093C10086E0809377
:107E2000C20080E18093C4008EE0C9D0259A86E02C
:107E300020E33CEF91E0309385002093840096BBD3
:107E4000B09BFECF1D9AA8958150A9F7CC24DD24C4
:107E500088248394B5E0AB2EA1E19A2EF3E0BF2EE7
:107E6000A2D0813461F49FD0082FAFD0023811F036
:107E7000013811F484E001C083E08DD089C08234E0
:107E800011F484E103C0853419F485E0A6D080C0E4
:107E9000853579F488D0E82EFF2485D0082F10E0AE
:107EA000102F00270E291F29000F111F8ED06801E7
:107EB0006FC0863521F484E090D080E0DECF843638
:107EC00009F040C070D06FD0082F6DD080E0C81688
:107ED00080E7D80618F4F601B7BEE895C0E0D1E017
:107EE00062D089930C17E1F7F0E0CF16F0E7DF06D8
:107EF00018F0F601B7BEE89568D007B600FCFDCFD4
:107F0000A601A0E0B1E02C9130E011968C91119780
:107F100090E0982F8827822B932B1296FA010C0160
:107F200087BEE89511244E5F5F4FF1E0A038BF0790
:107F300051F7F601A7BEE89507B600FCFDCF97BE46
:107F4000E89526C08437B1F42ED02DD0F82E2BD052
:107F50003CD0F601EF2C8F010F5F1F4F84911BD097
:107F6000EA94F801C1F70894C11CD11CFA94CF0C13
:107F7000D11C0EC0853739F428D08EE10CD085E9AC
:107F80000AD08FE07ACF813511F488E018D01DD067
:107F900080E101D065CF982F8091C00085FFFCCF94
:107FA0009093C60008958091C00087FFFCCF809118
:107FB000C00084FD01C0A8958091C6000895E0E648
:107FC000F0E098E1908380830895EDDF803219F02E
:107FD00088E0F5DFFFCF84E1DECF1F93182FE3DFCA
:107FE0001150E9F7F2DF1F91089580E0E8DFEE27F6
:047FF000FF270994CA
:027FFE00040479
:00000001FF
